:10015E001201C61200FD8F16E516640170230518F4
:10016E00531803E5187002F515E518B4010375155B
:10017E0028E518B40203751532E518B40303751596
:0D018E0064E518FD7C007F0112009A80C618
:03000B0002019B54
:06019B00C0E0C0F0C0D07E
:1001A100758A9C758CFF0517E51775F0648485F0D9
:0E01B10017E517C395155004D2908002C29036
:0701BF00D0D0D0F0D0E032F7
:1001DD00EF1FAC0670011E4C600A7D0C7CA9DCFE85
:0401ED00DDFC80ECC9
:0101F10022EB
:1000FD00E4F51920B1137F0AFE1201DD30B1FD7F49
:10010D000A7E001201DD75190120B0147F0A7E00F0
:10011D001201DD30B0FD7F0A7E001201DD7519027E
:10012D0020B2147F0A7E001201DD30B2FD7F0A7EFF
:10013D00001201DD75190320B3147F0A7E00120130
:10014D00DD30B3FD7F0A7E001201DD751904AF1994
:01015D00227F
:1001C6005389F0438901758A9C758CFFC28DD28C48
:0701D600D2A9D2AFC2B92289
:0D01F2000B083F065B4F6D666D7D077F6F4C
:10009A00EF14B4080050549000AF75F003A4C58360
:1000AA0025F0C583730200C70200CB0200CF02000D
:1000BA00D30200D70200DF0200E70200EFD2A480D9
:1000CA000ED2A48012D2A48016D2A4801AC2A4D2BC
:1000DA00A3D2A28016C2A4D2A3C2A2800EC2A4C274
:1000EA00A3D2A28006C2A4C2A3C2A274082DF8E6B3
:0300FA00F580226C
:0300000002000EED
:0C000E00787FE4F6D8FD758119020055DA
:10001A0002015EE493A3F8E493A34003F68001F29D
:10002A0008DFF48029E493A3F85407240CC8C333E7
:10003A00C4540F4420C8834004F456800146F6DFB6
:10004A00E4800B01020408102040809001F2E47E53
:10005A00019360BCA3FF543F30E509541FFEE493AB
:10006A00A360010ECF54C025E060A840B8E493A372
:10007A00FAE493A3F8E493A3C8C582C8CAC583CA9D
:10008A00F0A3C8C582C8CAC583CADFE9DEE780BE55
:0101FF0000FF
:00000001FF
