:1000F5007D057C007F0212008F7D067C007F031248
:10010500008F7D077C007F0412008F7D087C007FB7
:060115000512008F80DAE4
:10011B00EF1FAC0670011E4C600A7D0C7CA9DCFE47
:04012B00DDFC80EC8B
:01012F0022AD
:0B01300009083F065B4F6D7D077F6FE5
:10008F00EF14B4080050549000A475F003A4C58376
:10009F0025F0C583730200BC0200C00200C4020039
:1000AF00C80200CC0200D40200DC0200E4D2A4801B
:1000BF000ED2A48012D2A48016D2A4801AC2A4D2C7
:1000CF00A3D2A28016C2A4D2A3C2A2800EC2A4C27F
:1000DF00A3D2A28006C2A4C2A3C2A274082DF8E6BE
:0600EF00F580E4F580221B
:03000000020003F8
:0C000300787FE4F6D8FD75811002004AF9
:10000F000200F5E493A3F8E493A34003F68001F212
:10001F0008DFF48029E493A3F85407240CC8C333F2
:10002F00C4540F4420C8834004F456800146F6DFC1
:10003F00E4800B0102040810204080900130E47E20
:10004F00019360BCA3FF543F30E509541FFEE493B6
:10005F00A360010ECF54C025E060A840B8E493A37D
:10006F00FAE493A3F8E493A3C8C582C8CAC583CAA8
:10007F00F0A3C8C582C8CAC583CADFE9DEE780BE60
:01013B0000C3
:00000001FF
