:02042200610077
:1001DA001203847BFF7A0479227D017F011202FBDC
:1001EA001204161203B7EF60FA12041C8F2F1204BE
:1001FA001F8F2EE52FFB7A007518027D017F0212F0
:10020A000257E52EFB7A007518027D057F0212025D
:03021A005780D03A
:10036F00EF1FAC0670011E4C600A7D0C7CA9DCFEF1
:04037F00DDFC80EC35
:010383002257
:0603A800C2A58F80D2A760
:0803AE007F027EEFDEFEDFFCA2
:0103B6002224
:0A03F300C2A61203A8C2A70203AEBF
:10031E00CFCDCFCECCCE1201857C007D0A120185C9
:04032E00ED2430FF8B
:0A033200D2A61203A8C2A70203AE70
:10035900AE07BE0104ED148006BE0209ED243F4438
:0603690080FF1203F322E5
:100384007F381203F37F0C1203F37F061203F37F0B
:04039400010203F36C
:0A03FD00AC03120359AF04020332EF
:0602FB008B148A15891620
:10030100120359E4FDAB14AA15A9168D8275830059
:0C031100120146FF60061203320D80E965
:01031D0022BD
:0C02C8007F0AEA24FFFDE434FFFC7E0006
:0802D4008E198F1A8C1B8D1C82
:1002DC007F017E00E4FBEBC3951CE51B6480F87486
:0E02EC008098500AAC19AD1A1201730B80E80D
:0102FA0022E1
:04033C008A268B275B
:10034000120359AA28EAD39400400D1202C8AC2621
:08035000AD2712031E1A80ED17
:010358002282
:10021D00120359C3EA64809480400B7F2B12033282
:10022D008A228B23800E7F2D120332C3E49BF5238C
:10023D00E49AF522AA21EAD39400400D1202C8AC2B
:09024D0022AD2312031E1A80EDFC
:010256002285
:040257008A168B1761
:10025B00120359AA18EAD3940040297F101202CA3C
:10026B00AC16AD17CFCDCFCECCCE120185EF540F40
:10027B00FEC3940AEE5004243080022437FF12038D
:04028B00321A80D1D2
:01028F00224C
:040290008A2B8B2CFE
:10029400120359AA2DEAD394004028EA24FFFDE46E
:1002A40034FFFC7F027E001202D4AC2BAD2CCFCDE8
:1002B400CFCECCCE120185EF54012430FF1203328D
:0302C4001A80D2CB
:0102C7002214
:0B03DD00D288C289D2A8D2AFD2B822C9
:100398005389F0438901E4F58AF58CC28DC28C2219
:0B03E800AD07AC068C8CAF058F8A229D
:09040700AF8CEFFEAD8AEDFF227F
:06041000EF24FF928C2294
:060416001203980203DD51
:0D03B700E50F6006E4F50F7F01227F0022B4
:0D03C400E50D6006E4F50D7F01227F0022AB
:03041C00AF0C2200
:03041F00AF0B22FE
:03000300020006F2
:10000600C0E0C0F0C083C082C0D075D000C000C0C0
:1000160001C002C003C004C005C006C007E50870E1
:100026000CFFFE1203E87F01120410803FE508640E
:1000360001703FD3E50A94C8E50994324013E50AF6
:1000460094B0E5099436500975A0007508020201BE
:100056002BD3E50A94FEE50994294010E50A94E6B7
:10006600E509942D5006750D01020123750801025C
:10007600012BE5086402600302012B1204078E09B6
:100086008F0AE4FFFE1203E8D3E50A946CE50994AF
:1000960002402BE50A9454E50994065021E50E1317
:1000A6001313541F2410F8C000E6FFE50E5407FE94
:1000B600F87401088002C333D8FCF45F8033D3E5BB
:1000C6000A94D6E5099406402FE50A94BEE50994FC
:1000D6000A5025E50E131313541F2410F8C000E62A
:1000E600FFE50E5407FEF87401088002C333D8FCFE
:1000F6004FD000F6050E8006750E00750801E50E58
:10010600C394204020750E00E511F4B5100FE513D9
:10011600F4B5120985100C85120B750F01E4FF1258
:100126000410750800D007D006D005D004D003D03F
:1001360002D001D000D0D0D082D083D0F0D0E0322F
:030000000203D127
:0C03D100787FE4F6D8FD75812F0201DA78
:10014600BB010CE58229F582E5833AF583E022506E
:1001560006E92582F8E622BBFE06E92582F8E222B8
:0D016600E58229F582E5833AF583E49322D2
:10017300EF8DF0A4A8F0CF8CF0A428CE8DF0A42EA0
:02018300FE225A
:10018500BC000BBE0029EF8DF084FFADF022E4CC5E
:10019500F875F008EF2FFFEE33FEEC33FCEE9DEC27
:1001A500984005FCEE9DFE0FD5F0E9E4CEFD22ED6D
:1001B500F8F5F0EE8420D21CFEADF075F008EF2FB7
:1001C500FFED33FD4007985006D5F0F222C398FDA8
:0501D5000FD5F0EA2245
:00000001FF
