:10044A0050617373776F72643A004F4B2000657284
:02045A0072002E
:10018C001204367BFF7A04794A7D017F011203AD9C
:10019C001200038F25E52560F7D3940A5037E5222A
:1001AC00C394045020AE23AF247C007D0A12026855
:1001BC008E238F24E52575F00A84E5F02524F5249B
:1001CC00E43523F5230522750C04AB24AA237D0109
:1001DC007F021203EEE525640B7034E524B4290D7F
:1001EC00E523B409087BFF7A04795480067BFF7AF7
:1001FC000479587D0E7F011203ADE4F523F524F547
:10020C0022750C04AB24AA237D017F021203EEE5B8
:10021C0025640C600302019CF523F524F522750C72
:0F022C0004AB24AA237D017F021203EE02019C82
:10042100EF1FAC0670011E4C600A7D0C7CA9DCFE3E
:04043100DDFC80EC82
:0104350022A4
:06045C00C2A58F80D2A7AB
:080462007F027EEFDEFEDFFCED
:01046A00226F
:0A047700C2A612045CC2A7020462D0
:1003D000CFCDCFCECCCE12027A7C007D0A12027A2B
:0403E000ED2430FFD9
:0A03E400D2A612045CC2A702046254
:10040B00AE07BE0104ED148006BE0209ED243F4485
:06041B0080FF12047722AD
:100436007F381204777F0C1204777F061204777FC9
:040446000102047734
:0A048100AC0312040BAF040203E405
:0603AD008B088A09890A91
:1003B30012040BE4FDAB08AA09A90A8D8275830018
:0C03C30012023BFF60061203E40D80E90B
:0103CF00220B
:0C037A007F0AEA24FFFDE434FFFC7E0053
:080386008E0D8F0E8C0F8D10FF
:10038E007F017E00E4FBEBC39510E50F6480F874EB
:0E039E008098500AAC0DAD0E1202680B80E87C
:0103AC00222E
:0403EE008A0A8B0BE1
:1003F20012040BAA0CEAD39400400D12037AAC0A41
:08040200AD0B1203D01A80EDCE
:01040A0022CF
:1002CF0012040BC3EA64809480400B7F2B1203E46B
:1002DF008A168B17800E7F2D1203E4C3E49BF5174C
:1002EF00E49AF516AA15EAD39400400D12037AACDE
:0902FF0016AD171203D01A80EDB0
:0103080022D2
:040309008A1A8B1BA6
:10030D0012040BAA1CEAD3940040297F1012037C1F
:10031D00AC1AAD1BCFCDCFCECCCE12027AEF540F8F
:10032D00FEC3940AEE5004243080022437FF1203DA
:04033D00E41A80D16D
:010341002299
:040342008A1F8B2063
:1003460012040BAA21EAD394004028EA24FFFDE414
:1003560034FFFC7F027E00120386AC1FAD20CFCD9A
:10036600CFCECCCE12027AEF54012430FF1203E432
:030376001A80D218
:010379002261
:10000300E4F5087590FFC2932097137F14FE120442
:10001300213097FD7F147E0012042175080120967C
:10002300147F147E001204213096FD7F147E00128B
:1000330004217508052095147F147E0012042130D5
:1000430095FD7F147E001204217508092094147F06
:10005300147E001204213094FD7F147E00120421CB
:1000630075080D7590FFC2922097147F147E0012BD
:1000730004213097FD7F147E0012042175080220AD
:1000830096147F147E001204213096FD7F147E00A7
:100093001204217508062095147F147E0012042192
:1000A3003095FD7F147E0012042175080A209414F4
:1000B3007F147E001204213094FD7F147E0012040D
:1000C3002175080E7590FFC2912097147F147E004E
:1000D3001204213097FD7F147E001204217508035A
:1000E3002096147F147E001204213096FD7F147E27
:1000F300001204217508072095147F147E00120452
:10010300213095FD7F147E0012042175080B209485
:10011300147F147E001204213094FD7F147E00129C
:10012300042175080F7590FFC2902097147F147EE9
:10013300001204213097FD7F147E001204217508FC
:10014300042096147F147E001204213096FD7F1440
:100153007E001204217508082095147F147E001276
:1001630004213095FD7F147E0012042175080C20B4
:1001730094147F147E001204213094FD7F147E00BA
:08018300120421750810AF08F9
:01018B002251
:0300000002046B8C
:0C046B00787FE4F6D8FD75812502018C35
:10023B00BB010CE58229F582E5833AF583E0225078
:10024B0006E92582F8E622BBFE06E92582F8E222C2
:0D025B00E58229F582E5833AF583E49322DC
:10026800EF8DF0A4A8F0CF8CF0A428CE8DF0A42EAA
:02027800FE2264
:10027A00BC000BBE0029EF8DF084FFADF022E4CC68
:10028A00F875F008EF2FFFEE33FEEC33FCEE9DEC31
:10029A00984005FCEE9DFE0FD5F0E9E4CEFD22ED77
:1002AA00F8F5F0EE8420D21CFEADF075F008EF2FC1
:1002BA00FFED33FD4007985006D5F0F222C398FDB2
:0502CA000FD5F0EA224F
:00000001FF
