:1001AB001202021200038F21E52160F7FD7C007F14
:1001BB0001120244E521FD7C007F0212024480E320
:03000B0002009A56
:10009A00C0E0C0F0C083C082C0D075D000C000C02C
:0D00AA0001C002C003C004C005C006C007AD
:1000B700758A18758CFC051EE51E7002051DC39414
:1000C70014E51D94004009751D00751E001201728C
:1000D7000520E5207002051FC39402E51F94004028
:0A00E70009751F007520001201E7E3
:1000F100D007D006D005D004D003D002D001D00063
:0B010100D0D0D082D083D0F0D0E0320C
:10022F00EF1FAC0670011E4C600A7D0C7CA9DCFE32
:04023F00DDFC80EC76
:010243002298
:05000300AF24E4F52428
:0100080022D5
:10021900E4FF20B1010F20B0027F0220B2027F0368
:0502290020B3027F0478
:01022E0022AD
:100172008522231202198F22E523B40107E522709A
:1001820003752401E523B40207E5227003752402F6
:10019200E523B40307E5227003752403E523B404C1
:0801A20007E522700375240437
:0101AA002232
:1001CB000909000A0A0A0A0A0A0A0A0B123F065B05
:0B01DB004F666D7D077F6F000108017B
:09024400AE0574092FF8A606228C
:10010C00E4F580EF14B40800505490012475F0030A
:10011C00A4C58325F0C5837302013C020140020192
:10012C004402014802014C02015402015C020164C8
:10013C00D2A4800ED2A48012D2A48016D2A4801A8B
:10014C00C2A4D2A3D2A28016C2A4D2A3C2A2800EF1
:10015C00C2A4C2A3D2A28006C2A4C2A3C2A2741219
:06016C002DF8E6F58022EB
:1001E70074092508F8E6FD7C00AF0812010C050824
:0A01F700E508C394094003750801F0
:0102010022DA
:100202005389F0438901758A18758CFCC28DD28C92
:07021200D2A9D2AFC2B9224C
:0300000002000EED
:0C000E00787FE4F6D8FD758124020055CF
:10001A000201ABE493A3F8E493A34003F68001F250
:10002A0008DFF48029E493A3F85407240CC8C333E7
:10003A00C4540F4420C8834004F456800146F6DFB6
:10004A00E4800B01020408102040809001CBE47E7A
:10005A00019360BCA3FF543F30E509541FFEE493AB
:10006A00A360010ECF54C025E060A840B8E493A372
:10007A00FAE493A3F8E493A3C8C582C8CAC583CA9D
:10008A00F0A3C8C582C8CAC583CADFE9DEE780BE55
:0101E6000018
:00000001FF
