:03087800543A00EF
:100462001207EA7BFF7A0879787D017F011206C5BF
:1004720012081F12064D8F1C8E1B8D1A8C19E4FF59
:10048200FEFDFCAB1CAA1BA91AA8191201A9501E39
:100492007B2D7D037F01120858AF1CAE1BAD1AAC39
:1004A200191202228F1C8E1B8D1A8C1980097B2B2C
:1004B2007D037F01120858AF1CAE1BAD1AAC191296
:1004C2000271AB07AA06750C037D047F0112072493
:1004D2007B2E7D077F01120858E4FFFE7DC87C4217
:1004E200AB1CAA1BA91AA819120003120271E47B01
:1004F20064FAF9F81203C2750C027D087F01120733
:040502002402047259
:1007D500EF1FAC0670011E4C600A7D0C7CA9DCFE87
:0407E500DDFC80ECCB
:0107E90022ED
:0D081F0012075E7FCC1207787F4402077835
:10064D0012075E7FCC1207787FBE12077812074122
:10065D008F08120741EFFEE508FFFDAC06EC120214
:0B066D0038E4FBFA7980784102010CB0
:09086200D2A0D2A1C2A0C2A122C1
:07086B00C2A0D2A1D2A0221D
:02067800AD07CC
:10067A00E4FB7E007480A803088006CEA2E713CEAE
:10068A0013D8F8FFEDF582EF558224FF92A0D2A18C
:06069A00C2A10BBB08DC4D
:0106A0002237
:1006E800E4FFD2A0FED2A130A00DA8067480088035
:0D06F80002C313D8FC4207C2A10EBE08E8E1
:0107050022D1
:0A084400EF24FF92A0D2A1C2A1226E
:0B082C00D2A0D2A1A2A0E433FFC2A121
:01083700229E
:05087200AF2EE4F52E9D
:01087700225E
:1007A900E4FF20B1010F20B0027F0220B2027F03D3
:0507B90020B3027F04E3
:0107BE002218
:10054000852C2D1207A98F2CE52DB40107E52C7001
:1005500003752E01E52DB40207E52C7003752E02FC
:10056000E52DB40307E52C7003752E03E52DB404C7
:0805700007E52C7003752E0451
:010578002260
:06081000C2A58F80D2A7F3
:080816007F027EEFDEFEDFFC35
:01081E0022B7
:0A084E00C2A6120810C2A702081685
:10070600CFCDCFCECCCE1203317C007D0A12033181
:04071600ED2430FF9F
:0A071A00D2A6120810C2A7020816AA
:1007BF00AE07BE0104ED148006BE0209ED243F44CE
:0607CF0080FF12084E221B
:1007EA007F3812084E7F0C12084E7F0612084E7F81
:0407FA000102084EA2
:0A085800AC031207BFAF0402071A39
:0606C5008B088A09890A76
:1006CB001207BFE4FDAB08AA09A90A8D8275830046
:0C06DB001202F2FF600612071A0D80E9FF
:0106E70022F0
:0C05EA007F0AEA24FFFDE434FFFC7E00E1
:0805F6008E0D8F0E8C0F8D108D
:1005FE007F017E00E4FBEBC39510E50F6480F87479
:0E060E008098500AAC0DAD0E12031F0B80E851
:01061C0022BB
:040724008A0A8B0BA7
:100728001207BFAA0CEAD39400400D1205EAAC0ADE
:08073800AD0B1207061A80ED5B
:010740002296
:100506001207BFC3EA64809480400B7F2B12071A40
:100516008A168B17800E7F2D12071AC3E49BF517D8
:10052600E49AF516AA15EAD39400400D1205EAAC32
:0905360016AD171207061A80ED3C
:01053F002299
:040579008A208B2128
:10057D001207BFAA22EAD3940040297F101205EC7E
:10058D00AC20AD21CFCDCFCECCCE120331EF540F59
:10059D00FEC3940AEE5004243080022437FF120764
:0405AD001A1A80D1C5
:0105B1002227
:0405B2008A258B26E5
:1005B6001207BFAA27EAD394004028EA24FFFDE4E5
:1005C60034FFFC7F027E001205F6AC25AD26CFCDAA
:1005D600CFCECCCE120331EF54012430FF12071ACE
:0305E6001A80D2A6
:0105E90022EF
:10075E00D2B7C2B77FF7DFFED2B77F20DFFEA2B7D8
:09076E00E433FE7FF7DFFEAF0665
:01077700225F
:1007FE00C2B77E04DEFEEF24FF92B77E18DEFED275
:01080E00B732
:01080F0022C6
:10079100C2B77F02DFFED2B77F02DFFEA2B7E4332A
:0707A100FE7F18DFFEAF062A
:0107A800222E
:02077800AD07CB
:10077A00E4FCA8047401088002C333D8FC5DFF12AC
:06078A0007FE0CBC08ECA8
:010790002246
:10074100E4FDFC120791EF600DA80474010880021A
:0C075100C333D8FC42050CBC08E9AF051E
:01075D002279
:0606A1008F288C298D2A30
:1006A7001208627FA012067812082CAF281206786B
:0E06B70012082CAF2A12067812082C02086BCB
:02061D008F2F1D
:10061F001208627FA012067812082CAF2F120678EC
:10062F0012082C1208627FA112067812082C1206EB
:0D063F00E88F307F0112084412086BAF30C5
:01064C00228B
:10000300EC4D6011E8497017ED33EC3304600DE4F7
:10001300FCFFFEFD22E933E8330470F80202DD122F
:1000230002A858046009E4CC248150062850090230
:1000330002E72840030202E4C0E0EB4A7044B980BF
:1000430006D0E0FB0202D3EF4E701CBD8008EBFF2D
:10005300EAFEE9FD80EBE98DF0A4FEE5F00200EC99
:10006300E9CDF9EAFEEBFFEF89F0A4FCE5F0CE89D8
:10007300F0A42EFFE435F0CD89F0A42DFEE435F095
:100083008067EF4E7005BD80D780C3EF8BF0A4ACC3
:10009300F0EE8BF0A42CFCE435F0F8EF8AF0A42CFE
:1000A300E5F038FCE433CB8DF0A42CFCE5F03BF811
:1000B300EE8AF0A42CFCE5F038F8E433CF89F0A401
:1000C3002CFCE5F038CF3400CE89F0A42FFFE5F007
:1000D3003EFEE433C98DF0A42EFEE5F039CD8AF05F
:1000E300A42FFFE5F03EFEE43DFD33D0E0FB5007D7
:1000F3000BBB000F0202E7EC2CFCEF33FFEE33FEE9
:06010300ED33FD0202BF16
:100109000202E7EC5D046005E8590470030202DDB0
:100119001202A8580460F6EC4860F2EC7004FDFE87
:10012900FF22C860DB2481C85009C39860025006C9
:100139000202E49850CAF582E9294B4A7005AB825C
:100149000202D375F0007C1A7880C3EF9BEE9AED1A
:1001590099400DC3EF9BFFEE9AFEED99FDE842F041
:10016900DC23ACF0D0E0FFD0E0FED0E0FDAB822094
:10017900E7101BEB60BAEC2CFCEF33FFEE33FEED1E
:1001890033FD0202BFE803F830E705C0F075F0005F
:10019900EF2FFFEE33FEED33FD40B830E7C280AA02
:1001A90074F8CC6480CCC86480C8F58204604FC3FD
:1001B900EB9FF5F0EA9E42F0E99D42F0E89C45F09C
:1001C900603C501DE5825FFFE582D313CB5BCBF426
:1001D9002B5582FB50280ABA002409B9002008804F
:1001E9001DE5825BFBE582D313CF5FCFF4C3132FE9
:1001F9005582FF50090EBE00050DBD00010CC3EB71
:100209009FF5F0EA9E42F0E99D42F0E89C45F060D6
:0902190007CC4820E701B3EC22F8
:10022200ED33EC33600A047003BD8004ECB2E7FCEA
:0102320022A9
:1002330075F020800E75F010800575F0087D007E46
:10024300007F003392D530D503120454EC334010B1
:10025300EF33FFEE33FEED33FDEC33FCD5F0ED224F
:0E026300E5F0247EA2D513CC92E7CDCEFF228B
:10027100EDD2E7CD33EC3392D524814006E4FFFE85
:10028100FDFC22FCE4CFCECDCC24E0501174FF80E4
:10029100EDC3CC13CCCD13CDCE13CECF13CF047081
:0702A100F030D5DE02045429
:1002A800E9D2E7C933E833F892D5EDD2E7CD33EC9C
:0702B80033FC5002B2D52215
:1002BF00EC30E7100FBF000C0EBE00080DBD0004A0
:1002CF000BEB6014A2D5EB13FCED92E7FD2274FF4C
:1002DF00FCFDFEFF22E480F8A2D574FF13FC7D80A5
:0302EF00E480EFB9
:03000000020838BB
:0C083800787FE4F6D8FD75813002046280
:1002F200BB010CE58229F582E5833AF583E02250C1
:1003020006E92582F8E622BBFE06E92582F8E2220A
:0D031200E58229F582E5833AF583E4932224
:10031F00EF8DF0A4A8F0CF8CF0A428CE8DF0A42EF2
:02032F00FE22AC
:10033100BC000BBE0029EF8DF084FFADF022E4CCB0
:10034100F875F008EF2FFFEE33FEEC33FCEE9DEC79
:10035100984005FCEE9DFE0FD5F0E9E4CEFD22EDBF
:10036100F8F5F0EE8420D21CFEADF075F008EF2F09
:10037100FFED33FD4007985006D5F0F222C398FDFA
:050381000FD5F0EA2297
:1003860075F008758200EF2FFFEE33FECD33CDCC2E
:1003960033CCC58233C5829BED9AEC99E5829840B1
:1003A6000CF582EE9BFEED9AFDEC99FC0FD5F0D68E
:1003B600E4CEFBE4CDFAE4CCF9A88222B800C1B9B8
:1003C6000059BA002DEC8BF084CFCECDFCE5F0CBF6
:1003D600F97818EF2FFFEE33FEED33FDEC33FCEB2F
:1003E60033FB10D703994004EB99FB0FD8E5E4F9EA
:1003F600FA227818EF2FFFEE33FEED33FDEC33FCD7
:10040600C933C910D7059BE99A4007EC9BFCE99ACA
:10041600F90FD8E0E4C9FAE4CCFB2275F010EF2F0F
:10042600FFEE33FEED33FDCC33CCC833C810D7070F
:100436009BEC9AE899400AED9BFDEC9AFCE899F84A
:0E0446000FD5F0DAE4CDFBE4CCFAE4C8F922DD
:0E045400C3E49FFFE49EFEE49DFDE49CFC22B9
:00000001FF
